{
  "_format": "hh-sol-artifact-1",
  "contractName": "MyEpicNFT",
  "sourceName": "contracts/MyEpicNFT.sol",
  "abi": [
    {
      "inputs": [
        {
          "internalType": "uint256",
          "name": "supply",
          "type": "uint256"
        }
      ],
      "stateMutability": "nonpayable",
      "type": "constructor"
    },
    {
      "anonymous": false,
      "inputs": [
        {
          "indexed": true,
          "internalType": "address",
          "name": "owner",
          "type": "address"
        },
        {
          "indexed": true,
          "internalType": "address",
          "name": "approved",
          "type": "address"
        },
        {
          "indexed": true,
          "internalType": "uint256",
          "name": "tokenId",
          "type": "uint256"
        }
      ],
      "name": "Approval",
      "type": "event"
    },
    {
      "anonymous": false,
      "inputs": [
        {
          "indexed": true,
          "internalType": "address",
          "name": "owner",
          "type": "address"
        },
        {
          "indexed": true,
          "internalType": "address",
          "name": "operator",
          "type": "address"
        },
        {
          "indexed": false,
          "internalType": "bool",
          "name": "approved",
          "type": "bool"
        }
      ],
      "name": "ApprovalForAll",
      "type": "event"
    },
    {
      "anonymous": false,
      "inputs": [
        {
          "indexed": false,
          "internalType": "address",
          "name": "sender",
          "type": "address"
        },
        {
          "indexed": false,
          "internalType": "uint256",
          "name": "tokenId",
          "type": "uint256"
        }
      ],
      "name": "NewEpicNFTMinted",
      "type": "event"
    },
    {
      "anonymous": false,
      "inputs": [
        {
          "indexed": true,
          "internalType": "address",
          "name": "from",
          "type": "address"
        },
        {
          "indexed": true,
          "internalType": "address",
          "name": "to",
          "type": "address"
        },
        {
          "indexed": true,
          "internalType": "uint256",
          "name": "tokenId",
          "type": "uint256"
        }
      ],
      "name": "Transfer",
      "type": "event"
    },
    {
      "inputs": [
        {
          "internalType": "address",
          "name": "to",
          "type": "address"
        },
        {
          "internalType": "uint256",
          "name": "tokenId",
          "type": "uint256"
        }
      ],
      "name": "approve",
      "outputs": [],
      "stateMutability": "nonpayable",
      "type": "function"
    },
    {
      "inputs": [
        {
          "internalType": "address",
          "name": "owner",
          "type": "address"
        }
      ],
      "name": "balanceOf",
      "outputs": [
        {
          "internalType": "uint256",
          "name": "",
          "type": "uint256"
        }
      ],
      "stateMutability": "view",
      "type": "function"
    },
    {
      "inputs": [
        {
          "internalType": "uint256",
          "name": "tokenId",
          "type": "uint256"
        }
      ],
      "name": "getApproved",
      "outputs": [
        {
          "internalType": "address",
          "name": "",
          "type": "address"
        }
      ],
      "stateMutability": "view",
      "type": "function"
    },
    {
      "inputs": [],
      "name": "getTotalNFTsMined",
      "outputs": [
        {
          "internalType": "uint256",
          "name": "",
          "type": "uint256"
        }
      ],
      "stateMutability": "view",
      "type": "function"
    },
    {
      "inputs": [
        {
          "internalType": "address",
          "name": "owner",
          "type": "address"
        },
        {
          "internalType": "address",
          "name": "operator",
          "type": "address"
        }
      ],
      "name": "isApprovedForAll",
      "outputs": [
        {
          "internalType": "bool",
          "name": "",
          "type": "bool"
        }
      ],
      "stateMutability": "view",
      "type": "function"
    },
    {
      "inputs": [],
      "name": "makeAnEpicNFT",
      "outputs": [],
      "stateMutability": "nonpayable",
      "type": "function"
    },
    {
      "inputs": [],
      "name": "name",
      "outputs": [
        {
          "internalType": "string",
          "name": "",
          "type": "string"
        }
      ],
      "stateMutability": "view",
      "type": "function"
    },
    {
      "inputs": [
        {
          "internalType": "uint256",
          "name": "tokenId",
          "type": "uint256"
        }
      ],
      "name": "ownerOf",
      "outputs": [
        {
          "internalType": "address",
          "name": "",
          "type": "address"
        }
      ],
      "stateMutability": "view",
      "type": "function"
    },
    {
      "inputs": [
        {
          "internalType": "uint256",
          "name": "tokenId",
          "type": "uint256"
        }
      ],
      "name": "pickRandomColor",
      "outputs": [
        {
          "internalType": "string",
          "name": "",
          "type": "string"
        }
      ],
      "stateMutability": "view",
      "type": "function"
    },
    {
      "inputs": [
        {
          "internalType": "uint256",
          "name": "tokenId",
          "type": "uint256"
        }
      ],
      "name": "pickRandomFirstWord",
      "outputs": [
        {
          "internalType": "string",
          "name": "",
          "type": "string"
        }
      ],
      "stateMutability": "view",
      "type": "function"
    },
    {
      "inputs": [
        {
          "internalType": "uint256",
          "name": "tokenId",
          "type": "uint256"
        }
      ],
      "name": "pickRandomSecondWord",
      "outputs": [
        {
          "internalType": "string",
          "name": "",
          "type": "string"
        }
      ],
      "stateMutability": "view",
      "type": "function"
    },
    {
      "inputs": [
        {
          "internalType": "uint256",
          "name": "tokenId",
          "type": "uint256"
        }
      ],
      "name": "pickRandomThirdWord",
      "outputs": [
        {
          "internalType": "string",
          "name": "",
          "type": "string"
        }
      ],
      "stateMutability": "view",
      "type": "function"
    },
    {
      "inputs": [
        {
          "internalType": "address",
          "name": "from",
          "type": "address"
        },
        {
          "internalType": "address",
          "name": "to",
          "type": "address"
        },
        {
          "internalType": "uint256",
          "name": "tokenId",
          "type": "uint256"
        }
      ],
      "name": "safeTransferFrom",
      "outputs": [],
      "stateMutability": "nonpayable",
      "type": "function"
    },
    {
      "inputs": [
        {
          "internalType": "address",
          "name": "from",
          "type": "address"
        },
        {
          "internalType": "address",
          "name": "to",
          "type": "address"
        },
        {
          "internalType": "uint256",
          "name": "tokenId",
          "type": "uint256"
        },
        {
          "internalType": "bytes",
          "name": "_data",
          "type": "bytes"
        }
      ],
      "name": "safeTransferFrom",
      "outputs": [],
      "stateMutability": "nonpayable",
      "type": "function"
    },
    {
      "inputs": [
        {
          "internalType": "address",
          "name": "operator",
          "type": "address"
        },
        {
          "internalType": "bool",
          "name": "approved",
          "type": "bool"
        }
      ],
      "name": "setApprovalForAll",
      "outputs": [],
      "stateMutability": "nonpayable",
      "type": "function"
    },
    {
      "inputs": [
        {
          "internalType": "bytes4",
          "name": "interfaceId",
          "type": "bytes4"
        }
      ],
      "name": "supportsInterface",
      "outputs": [
        {
          "internalType": "bool",
          "name": "",
          "type": "bool"
        }
      ],
      "stateMutability": "view",
      "type": "function"
    },
    {
      "inputs": [],
      "name": "symbol",
      "outputs": [
        {
          "internalType": "string",
          "name": "",
          "type": "string"
        }
      ],
      "stateMutability": "view",
      "type": "function"
    },
    {
      "inputs": [
        {
          "internalType": "uint256",
          "name": "tokenId",
          "type": "uint256"
        }
      ],
      "name": "tokenURI",
      "outputs": [
        {
          "internalType": "string",
          "name": "",
          "type": "string"
        }
      ],
      "stateMutability": "view",
      "type": "function"
    },
    {
      "inputs": [],
      "name": "totalSupply",
      "outputs": [
        {
          "internalType": "uint256",
          "name": "",
          "type": "uint256"
        }
      ],
      "stateMutability": "view",
      "type": "function"
    },
    {
      "inputs": [
        {
          "internalType": "address",
          "name": "from",
          "type": "address"
        },
        {
          "internalType": "address",
          "name": "to",
          "type": "address"
        },
        {
          "internalType": "uint256",
          "name": "tokenId",
          "type": "uint256"
        }
      ],
      "name": "transferFrom",
      "outputs": [],
      "stateMutability": "nonpayable",
      "type": "function"
    }
  ],
  "bytecode": "0x608060405260405180610100016040528060d381526020016200492660d39139600990805190602001906200003692919062000c92565b50604051806080016040528060568152602001620049f960569139600a90805190602001906200006892919062000c92565b506040518061018001604052806040518060400160405280600481526020017f436f64650000000000000000000000000000000000000000000000000000000081525081526020016040518060400160405280600681526020017f427572676572000000000000000000000000000000000000000000000000000081525081526020016040518060400160405280600681526020017f42616e616e61000000000000000000000000000000000000000000000000000081525081526020016040518060400160405280600481526020017f43616b650000000000000000000000000000000000000000000000000000000081525081526020016040518060400160405280600481526020017f546f6f6c0000000000000000000000000000000000000000000000000000000081525081526020016040518060400160405280600481526020017f476561720000000000000000000000000000000000000000000000000000000081525081526020016040518060400160405280600681526020017f4a61636b6574000000000000000000000000000000000000000000000000000081525081526020016040518060400160405280600481526020017f4465736b0000000000000000000000000000000000000000000000000000000081525081526020016040518060400160405280600381526020017f4f6464000000000000000000000000000000000000000000000000000000000081525081526020016040518060400160405280600481526020017f54616c650000000000000000000000000000000000000000000000000000000081525081526020016040518060400160405280600881526020017f4275696c64696e6700000000000000000000000000000000000000000000000081525081526020016040518060400160405280600581526020017f5377656570000000000000000000000000000000000000000000000000000000815250815250600b90600c6200034992919062000d23565b50604051806101c001604052806040518060400160405280600381526020017f436174000000000000000000000000000000000000000000000000000000000081525081526020016040518060400160405280600681526020017f426f756e6365000000000000000000000000000000000000000000000000000081525081526020016040518060400160405280600481526020017f547265650000000000000000000000000000000000000000000000000000000081525081526020016040518060400160405280600481526020017f4465636b0000000000000000000000000000000000000000000000000000000081525081526020016040518060400160405280600481526020017f426f61740000000000000000000000000000000000000000000000000000000081525081526020016040518060400160405280600681526020017f57696e746572000000000000000000000000000000000000000000000000000081525081526020016040518060400160405280600381526020017f53756e000000000000000000000000000000000000000000000000000000000081525081526020016040518060400160405280600481526020017f4461726b0000000000000000000000000000000000000000000000000000000081525081526020016040518060400160405280600581526020017f486e67727900000000000000000000000000000000000000000000000000000081525081526020016040518060400160405280600581526020017f43616e647900000000000000000000000000000000000000000000000000000081525081526020016040518060400160405280600381526020017f526564000000000000000000000000000000000000000000000000000000000081525081526020016040518060400160405280600581526020017f426561726400000000000000000000000000000000000000000000000000000081525081526020016040518060400160405280600581526020017f546f77656c00000000000000000000000000000000000000000000000000000081525081526020016040518060400160405280600381526020017f4361720000000000000000000000000000000000000000000000000000000000815250815250600c90600e620006a092919062000d8a565b50604051806101e001604052806040518060400160405280600781526020017f486f77657665720000000000000000000000000000000000000000000000000081525081526020016040518060400160405280600481526020017f48656c700000000000000000000000000000000000000000000000000000000081525081526020016040518060400160405280600381526020017f417865000000000000000000000000000000000000000000000000000000000081525081526020016040518060400160405280600681526020017f426174746c65000000000000000000000000000000000000000000000000000081525081526020016040518060400160405280600681526020017f48616d6d6572000000000000000000000000000000000000000000000000000081525081526020016040518060400160405280600381526020017f466c79000000000000000000000000000000000000000000000000000000000081525081526020016040518060400160405280600681526020017f526964646c65000000000000000000000000000000000000000000000000000081525081526020016040518060400160405280600381526020017f46756e000000000000000000000000000000000000000000000000000000000081525081526020016040518060400160405280600881526020017f50726f706572747900000000000000000000000000000000000000000000000081525081526020016040518060400160405280600581526020017f506f696e7400000000000000000000000000000000000000000000000000000081525081526020016040518060400160405280600681526020017f43616d657261000000000000000000000000000000000000000000000000000081525081526020016040518060400160405280600381526020017f4b6579000000000000000000000000000000000000000000000000000000000081525081526020016040518060400160405280600881526020017f46756e6374696f6e00000000000000000000000000000000000000000000000081525081526020016040518060400160405280600381526020017f4c6177000000000000000000000000000000000000000000000000000000000081525081526020016040518060400160405280600681526020017f537472696e670000000000000000000000000000000000000000000000000000815250815250600d90600f62000a3292919062000df1565b506040518060c001604052806040518060400160405280600381526020017f726564000000000000000000000000000000000000000000000000000000000081525081526020016040518060400160405280600781526020017f233038433241380000000000000000000000000000000000000000000000000081525081526020016040518060400160405280600581526020017f626c61636b00000000000000000000000000000000000000000000000000000081525081526020016040518060400160405280600681526020017f79656c6c6f77000000000000000000000000000000000000000000000000000081525081526020016040518060400160405280600481526020017f626c75650000000000000000000000000000000000000000000000000000000081525081526020016040518060400160405280600581526020017f677265656e000000000000000000000000000000000000000000000000000000815250815250600e90600662000bb092919062000e58565b5034801562000bbe57600080fd5b5060405162004a4f38038062004a4f833981810160405281019062000be4919062000f63565b6040518060400160405280600981526020017f5371756172654e465400000000000000000000000000000000000000000000008152506040518060400160405280600681526020017f5351554152450000000000000000000000000000000000000000000000000000815250816000908051906020019062000c6892919062000c92565b50806001908051906020019062000c8192919062000c92565b505050806008819055505062001018565b82805462000ca09062000f99565b90600052602060002090601f01602090048101928262000cc4576000855562000d10565b82601f1062000cdf57805160ff191683800117855562000d10565b8280016001018555821562000d10579182015b8281111562000d0f57825182559160200191906001019062000cf2565b5b50905062000d1f919062000ebf565b5090565b82805482825590600052602060002090810192821562000d77579160200282015b8281111562000d7657825182908051906020019062000d6592919062000c92565b509160200191906001019062000d44565b5b50905062000d86919062000ede565b5090565b82805482825590600052602060002090810192821562000dde579160200282015b8281111562000ddd57825182908051906020019062000dcc92919062000c92565b509160200191906001019062000dab565b5b50905062000ded919062000ede565b5090565b82805482825590600052602060002090810192821562000e45579160200282015b8281111562000e4457825182908051906020019062000e3392919062000c92565b509160200191906001019062000e12565b5b50905062000e54919062000ede565b5090565b82805482825590600052602060002090810192821562000eac579160200282015b8281111562000eab57825182908051906020019062000e9a92919062000c92565b509160200191906001019062000e79565b5b50905062000ebb919062000ede565b5090565b5b8082111562000eda57600081600090555060010162000ec0565b5090565b5b8082111562000f02576000818162000ef8919062000f06565b5060010162000edf565b5090565b50805462000f149062000f99565b6000825580601f1062000f28575062000f49565b601f01602090049060005260206000209081019062000f48919062000ebf565b5b50565b60008151905062000f5d8162000ffe565b92915050565b60006020828403121562000f7657600080fd5b600062000f868482850162000f4c565b91505092915050565b6000819050919050565b6000600282049050600182168062000fb257607f821691505b6020821081141562000fc95762000fc862000fcf565b5b50919050565b7f4e487b7100000000000000000000000000000000000000000000000000000000600052602260045260246000fd5b620010098162000f8f565b81146200101557600080fd5b50565b6138fe80620010286000396000f3fe608060405234801561001057600080fd5b506004361061012c5760003560e01c806370a08231116100ad578063c575757a11610071578063c575757a14610367578063c87b56dd14610397578063d4869d04146103c7578063de9d132f146103e5578063e985e9c5146103ef5761012c565b806370a08231146102b157806395d89b41146102e1578063a22cb465146102ff578063b187301f1461031b578063b88d4fde1461034b5761012c565b806323b872dd116100f457806323b872dd146101e95780632de38d681461020557806342842e0e14610235578063514dc8c6146102515780636352211e146102815761012c565b806301ffc9a71461013157806306fdde0314610161578063081812fc1461017f578063095ea7b3146101af57806318160ddd146101cb575b600080fd5b61014b600480360381019061014691906124d9565b61041f565b60405161015891906131b7565b60405180910390f35b610169610501565b60405161017691906131d2565b60405180910390f35b6101996004803603810190610194919061252b565b610593565b6040516101a69190613127565b60405180910390f35b6101c960048036038101906101c4919061249d565b610618565b005b6101d3610730565b6040516101e09190613414565b60405180910390f35b61020360048036038101906101fe9190612397565b61073a565b005b61021f600480360381019061021a919061252b565b61079a565b60405161022c91906131d2565b60405180910390f35b61024f600480360381019061024a9190612397565b6108b8565b005b61026b6004803603810190610266919061252b565b6108d8565b60405161027891906131d2565b60405180910390f35b61029b6004803603810190610296919061252b565b6109f6565b6040516102a89190613127565b60405180910390f35b6102cb60048036038101906102c69190612332565b610aa8565b6040516102d89190613414565b60405180910390f35b6102e9610b60565b6040516102f691906131d2565b60405180910390f35b61031960048036038101906103149190612461565b610bf2565b005b6103356004803603810190610330919061252b565b610d73565b60405161034291906131d2565b60405180910390f35b610365600480360381019061036091906123e6565b610e91565b005b610381600480360381019061037c919061252b565b610ef3565b60405161038e91906131d2565b60405180910390f35b6103b160048036038101906103ac919061252b565b611011565b6040516103be91906131d2565b60405180910390f35b6103cf611163565b6040516103dc9190613414565b60405180910390f35b6103ed611174565b005b6104096004803603810190610404919061235b565b611313565b60405161041691906131b7565b60405180910390f35b60007f80ac58cd000000000000000000000000000000000000000000000000000000007bffffffffffffffffffffffffffffffffffffffffffffffffffffffff1916827bffffffffffffffffffffffffffffffffffffffffffffffffffffffff191614806104ea57507f5b5e139f000000000000000000000000000000000000000000000000000000007bffffffffffffffffffffffffffffffffffffffffffffffffffffffff1916827bffffffffffffffffffffffffffffffffffffffffffffffffffffffff1916145b806104fa57506104f9826113a7565b5b9050919050565b606060008054610510906136b3565b80601f016020809104026020016040519081016040528092919081815260200182805461053c906136b3565b80156105895780601f1061055e57610100808354040283529160200191610589565b820191906000526020600020905b81548152906001019060200180831161056c57829003601f168201915b5050505050905090565b600061059e82611411565b6105dd576040517f08c379a00000000000000000000000000000000000000000000000000000000081526004016105d490613354565b60405180910390fd5b6004600083815260200190815260200160002060009054906101000a900473ffffffffffffffffffffffffffffffffffffffff169050919050565b6000610623826109f6565b90508073ffffffffffffffffffffffffffffffffffffffff168373ffffffffffffffffffffffffffffffffffffffff161415610694576040517f08c379a000000000000000000000000000000000000000000000000000000000815260040161068b906133b4565b60405180910390fd5b8073ffffffffffffffffffffffffffffffffffffffff166106b361147d565b73ffffffffffffffffffffffffffffffffffffffff1614806106e257506106e1816106dc61147d565b611313565b5b610721576040517f08c379a000000000000000000000000000000000000000000000000000000000815260040161071890613294565b60405180910390fd5b61072b8383611485565b505050565b6000600854905090565b61074b61074561147d565b8261153e565b61078a576040517f08c379a0000000000000000000000000000000000000000000000000000000008152600401610781906133d4565b60405180910390fd5b61079583838361161c565b505050565b606060006107ce6107aa84611878565b6040516020016107ba91906130c1565b604051602081830303815290604052611a25565b9050600b80549050816107e1919061372e565b9050600b818154811061081d577f4e487b7100000000000000000000000000000000000000000000000000000000600052603260045260246000fd5b906000526020600020018054610832906136b3565b80601f016020809104026020016040519081016040528092919081815260200182805461085e906136b3565b80156108ab5780601f10610880576101008083540402835291602001916108ab565b820191906000526020600020905b81548152906001019060200180831161088e57829003601f168201915b5050505050915050919050565b6108d383838360405180602001604052806000815250610e91565b505050565b6060600061090c6108e884611878565b6040516020016108f89190613105565b604051602081830303815290604052611a25565b9050600e805490508161091f919061372e565b9050600e818154811061095b577f4e487b7100000000000000000000000000000000000000000000000000000000600052603260045260246000fd5b906000526020600020018054610970906136b3565b80601f016020809104026020016040519081016040528092919081815260200182805461099c906136b3565b80156109e95780601f106109be576101008083540402835291602001916109e9565b820191906000526020600020905b8154815290600101906020018083116109cc57829003601f168201915b5050505050915050919050565b6000806002600084815260200190815260200160002060009054906101000a900473ffffffffffffffffffffffffffffffffffffffff169050600073ffffffffffffffffffffffffffffffffffffffff168173ffffffffffffffffffffffffffffffffffffffff161415610a9f576040517f08c379a0000000000000000000000000000000000000000000000000000000008152600401610a96906132d4565b60405180910390fd5b80915050919050565b60008073ffffffffffffffffffffffffffffffffffffffff168273ffffffffffffffffffffffffffffffffffffffff161415610b19576040517f08c379a0000000000000000000000000000000000000000000000000000000008152600401610b10906132b4565b60405180910390fd5b600360008373ffffffffffffffffffffffffffffffffffffffff1673ffffffffffffffffffffffffffffffffffffffff168152602001908152602001600020549050919050565b606060018054610b6f906136b3565b80601f0160208091040260200160405190810160405280929190818152602001828054610b9b906136b3565b8015610be85780601f10610bbd57610100808354040283529160200191610be8565b820191906000526020600020905b815481529060010190602001808311610bcb57829003601f168201915b5050505050905090565b610bfa61147d565b73ffffffffffffffffffffffffffffffffffffffff168273ffffffffffffffffffffffffffffffffffffffff161415610c68576040517f08c379a0000000000000000000000000000000000000000000000000000000008152600401610c5f90613254565b60405180910390fd5b8060056000610c7561147d565b73ffffffffffffffffffffffffffffffffffffffff1673ffffffffffffffffffffffffffffffffffffffff16815260200190815260200160002060008473ffffffffffffffffffffffffffffffffffffffff1673ffffffffffffffffffffffffffffffffffffffff16815260200190815260200160002060006101000a81548160ff0219169083151502179055508173ffffffffffffffffffffffffffffffffffffffff16610d2261147d565b73ffffffffffffffffffffffffffffffffffffffff167f17307eab39ab6107e8899845ad3d59bd9653f200f220920489ca2b5937696c3183604051610d6791906131b7565b60405180910390a35050565b60606000610da7610d8384611878565b604051602001610d93919061305a565b604051602081830303815290604052611a25565b9050600c8054905081610dba919061372e565b9050600c8181548110610df6577f4e487b7100000000000000000000000000000000000000000000000000000000600052603260045260246000fd5b906000526020600020018054610e0b906136b3565b80601f0160208091040260200160405190810160405280929190818152602001828054610e37906136b3565b8015610e845780601f10610e5957610100808354040283529160200191610e84565b820191906000526020600020905b815481529060010190602001808311610e6757829003601f168201915b5050505050915050919050565b610ea2610e9c61147d565b8361153e565b610ee1576040517f08c379a0000000000000000000000000000000000000000000000000000000008152600401610ed8906133d4565b60405180910390fd5b610eed84848484611a58565b50505050565b60606000610f27610f0384611878565b604051602001610f139190613038565b604051602081830303815290604052611a25565b9050600d8054905081610f3a919061372e565b9050600d8181548110610f76577f4e487b7100000000000000000000000000000000000000000000000000000000600052603260045260246000fd5b906000526020600020018054610f8b906136b3565b80601f0160208091040260200160405190810160405280929190818152602001828054610fb7906136b3565b80156110045780601f10610fd957610100808354040283529160200191611004565b820191906000526020600020905b815481529060010190602001808311610fe757829003601f168201915b5050505050915050919050565b606061101c82611411565b61105b576040517f08c379a000000000000000000000000000000000000000000000000000000000815260040161105290613334565b60405180910390fd5b600060066000848152602001908152602001600020805461107b906136b3565b80601f01602080910402602001604051908101604052809291908181526020018280546110a7906136b3565b80156110f45780601f106110c9576101008083540402835291602001916110f4565b820191906000526020600020905b8154815290600101906020018083116110d757829003601f168201915b505050505090506000611105611ab4565b905060008151141561111b57819250505061115e565b600082511115611150578082604051602001611138929190612f9a565b6040516020818303038152906040529250505061115e565b61115984611acb565b925050505b919050565b600061116f6007611b72565b905090565b6008546111816007611b72565b106111c1576040517f08c379a00000000000000000000000000000000000000000000000000000000081526004016111b8906133f4565b60405180910390fd5b60006111cd6007611b72565b905060006111da8261079a565b905060006111e783610d73565b905060006111f484610ef3565b9050600083838360405160200161120d93929190612fbe565b60405160208183030381529060405290506000611229866108d8565b90506000600982600a856040516020016112469493929190612fef565b6040516020818303038152906040529050600061128b8461126684611b80565b60405160200161127792919061307c565b604051602081830303815290604052611b80565b90506000816040516020016112a091906130e3565b60405160208183030381529060405290506112bb338a611d3e565b6112c58982611d5c565b6112cf6007611dd0565b7febb98688741ffa4c7589bf325de30cf7becb63de567842e1ccdb6cb949fdc82c338a60405161130092919061318e565b60405180910390a1505050505050505050565b6000600560008473ffffffffffffffffffffffffffffffffffffffff1673ffffffffffffffffffffffffffffffffffffffff16815260200190815260200160002060008373ffffffffffffffffffffffffffffffffffffffff1673ffffffffffffffffffffffffffffffffffffffff16815260200190815260200160002060009054906101000a900460ff16905092915050565b60007f01ffc9a7000000000000000000000000000000000000000000000000000000007bffffffffffffffffffffffffffffffffffffffffffffffffffffffff1916827bffffffffffffffffffffffffffffffffffffffffffffffffffffffff1916149050919050565b60008073ffffffffffffffffffffffffffffffffffffffff166002600084815260200190815260200160002060009054906101000a900473ffffffffffffffffffffffffffffffffffffffff1673ffffffffffffffffffffffffffffffffffffffff1614159050919050565b600033905090565b816004600083815260200190815260200160002060006101000a81548173ffffffffffffffffffffffffffffffffffffffff021916908373ffffffffffffffffffffffffffffffffffffffff160217905550808273ffffffffffffffffffffffffffffffffffffffff166114f8836109f6565b73ffffffffffffffffffffffffffffffffffffffff167f8c5be1e5ebec7d5bd14f71427d1e84f3dd0314c0f7b2291e5b200ac8c7c3b92560405160405180910390a45050565b600061154982611411565b611588576040517f08c379a000000000000000000000000000000000000000000000000000000000815260040161157f90613274565b60405180910390fd5b6000611593836109f6565b90508073ffffffffffffffffffffffffffffffffffffffff168473ffffffffffffffffffffffffffffffffffffffff16148061160257508373ffffffffffffffffffffffffffffffffffffffff166115ea84610593565b73ffffffffffffffffffffffffffffffffffffffff16145b8061161357506116128185611313565b5b91505092915050565b8273ffffffffffffffffffffffffffffffffffffffff1661163c826109f6565b73ffffffffffffffffffffffffffffffffffffffff1614611692576040517f08c379a000000000000000000000000000000000000000000000000000000000815260040161168990613374565b60405180910390fd5b600073ffffffffffffffffffffffffffffffffffffffff168273ffffffffffffffffffffffffffffffffffffffff161415611702576040517f08c379a00000000000000000000000000000000000000000000000000000000081526004016116f990613234565b60405180910390fd5b61170d838383611de6565b611718600082611485565b6001600360008573ffffffffffffffffffffffffffffffffffffffff1673ffffffffffffffffffffffffffffffffffffffff168152602001908152602001600020600082825461176891906135c9565b925050819055506001600360008473ffffffffffffffffffffffffffffffffffffffff1673ffffffffffffffffffffffffffffffffffffffff16815260200190815260200160002060008282546117bf91906134e8565b92505081905550816002600083815260200190815260200160002060006101000a81548173ffffffffffffffffffffffffffffffffffffffff021916908373ffffffffffffffffffffffffffffffffffffffff160217905550808273ffffffffffffffffffffffffffffffffffffffff168473ffffffffffffffffffffffffffffffffffffffff167fddf252ad1be2c89b69c2b068fc378daa952ba7f163c4a11628f55a4df523b3ef60405160405180910390a4505050565b606060008214156118c0576040518060400160405280600181526020017f30000000000000000000000000000000000000000000000000000000000000008152509050611a20565b600082905060005b600082146118f25780806118db906136e5565b915050600a826118eb919061353e565b91506118c8565b60008167ffffffffffffffff811115611934577f4e487b7100000000000000000000000000000000000000000000000000000000600052604160045260246000fd5b6040519080825280601f01601f1916602001820160405280156119665781602001600182028036833780820191505090505b5090505b60008514611a195760018261197f91906135c9565b9150600a8561198e919061372e565b603061199a91906134e8565b60f81b8183815181106119d6577f4e487b7100000000000000000000000000000000000000000000000000000000600052603260045260246000fd5b60200101907effffffffffffffffffffffffffffffffffffffffffffffffffffffffffffff1916908160001a905350600a85611a12919061353e565b945061196a565b8093505050505b919050565b600081604051602001611a389190612f83565b6040516020818303038152906040528051906020012060001c9050919050565b611a6384848461161c565b611a6f84848484611deb565b611aae576040517f08c379a0000000000000000000000000000000000000000000000000000000008152600401611aa5906131f4565b60405180910390fd5b50505050565b606060405180602001604052806000815250905090565b6060611ad682611411565b611b15576040517f08c379a0000000000000000000000000000000000000000000000000000000008152600401611b0c90613394565b60405180910390fd5b6000611b1f611ab4565b90506000815111611b3f5760405180602001604052806000815250611b6a565b80611b4984611878565b604051602001611b5a929190612f9a565b6040516020818303038152906040525b915050919050565b600081600001549050919050565b60606000825190506000811415611ba95760405180602001604052806000815250915050611d39565b60006003600283611bba91906134e8565b611bc4919061353e565b6004611bd0919061356f565b90506000602082611be191906134e8565b67ffffffffffffffff811115611c20577f4e487b7100000000000000000000000000000000000000000000000000000000600052604160045260246000fd5b6040519080825280601f01601f191660200182016040528015611c525781602001600182028036833780820191505090505b5090506000604051806060016040528060408152602001613889604091399050600181016020830160005b86811015611cf65760038101905062ffffff818a015116603f8160121c168401518060081b905060ff603f83600c1c1686015116810190508060081b905060ff603f8360061c1686015116810190508060081b905060ff603f831686015116810190508060e01b90508084526004840193505050611c7d565b506003860660018114611d105760028114611d2057611d2b565b613d3d60f01b6002830352611d2b565b603d60f81b60018303525b508484525050819450505050505b919050565b611d58828260405180602001604052806000815250611f82565b5050565b611d6582611411565b611da4576040517f08c379a0000000000000000000000000000000000000000000000000000000008152600401611d9b906132f4565b60405180910390fd5b80600660008481526020019081526020016000209080519060200190611dcb9291906121be565b505050565b6001816000016000828254019250508190555050565b505050565b6000611e0c8473ffffffffffffffffffffffffffffffffffffffff16611fdd565b15611f75578373ffffffffffffffffffffffffffffffffffffffff1663150b7a02611e3561147d565b8786866040518563ffffffff1660e01b8152600401611e579493929190613142565b602060405180830381600087803b158015611e7157600080fd5b505af1925050508015611ea257506040513d601f19601f82011682018060405250810190611e9f9190612502565b60015b611f25573d8060008114611ed2576040519150601f19603f3d011682016040523d82523d6000602084013e611ed7565b606091505b50600081511415611f1d576040517f08c379a0000000000000000000000000000000000000000000000000000000008152600401611f14906131f4565b60405180910390fd5b805181602001fd5b63150b7a0260e01b7bffffffffffffffffffffffffffffffffffffffffffffffffffffffff1916817bffffffffffffffffffffffffffffffffffffffffffffffffffffffff191614915050611f7a565b600190505b949350505050565b611f8c8383611ff0565b611f996000848484611deb565b611fd8576040517f08c379a0000000000000000000000000000000000000000000000000000000008152600401611fcf906131f4565b60405180910390fd5b505050565b600080823b905060008111915050919050565b600073ffffffffffffffffffffffffffffffffffffffff168273ffffffffffffffffffffffffffffffffffffffff161415612060576040517f08c379a000000000000000000000000000000000000000000000000000000000815260040161205790613314565b60405180910390fd5b61206981611411565b156120a9576040517f08c379a00000000000000000000000000000000000000000000000000000000081526004016120a090613214565b60405180910390fd5b6120b560008383611de6565b6001600360008473ffffffffffffffffffffffffffffffffffffffff1673ffffffffffffffffffffffffffffffffffffffff168152602001908152602001600020600082825461210591906134e8565b92505081905550816002600083815260200190815260200160002060006101000a81548173ffffffffffffffffffffffffffffffffffffffff021916908373ffffffffffffffffffffffffffffffffffffffff160217905550808273ffffffffffffffffffffffffffffffffffffffff16600073ffffffffffffffffffffffffffffffffffffffff167fddf252ad1be2c89b69c2b068fc378daa952ba7f163c4a11628f55a4df523b3ef60405160405180910390a45050565b8280546121ca906136b3565b90600052602060002090601f0160209004810192826121ec5760008555612233565b82601f1061220557805160ff1916838001178555612233565b82800160010185558215612233579182015b82811115612232578251825591602001919060010190612217565b5b5090506122409190612244565b5090565b5b8082111561225d576000816000905550600101612245565b5090565b600061227461226f84613460565b61342f565b90508281526020810184848401111561228c57600080fd5b612297848285613671565b509392505050565b6000813590506122ae8161382c565b92915050565b6000813590506122c381613843565b92915050565b6000813590506122d88161385a565b92915050565b6000815190506122ed8161385a565b92915050565b600082601f83011261230457600080fd5b8135612314848260208601612261565b91505092915050565b60008135905061232c81613871565b92915050565b60006020828403121561234457600080fd5b60006123528482850161229f565b91505092915050565b6000806040838503121561236e57600080fd5b600061237c8582860161229f565b925050602061238d8582860161229f565b9150509250929050565b6000806000606084860312156123ac57600080fd5b60006123ba8682870161229f565b93505060206123cb8682870161229f565b92505060406123dc8682870161231d565b9150509250925092565b600080600080608085870312156123fc57600080fd5b600061240a8782880161229f565b945050602061241b8782880161229f565b935050604061242c8782880161231d565b925050606085013567ffffffffffffffff81111561244957600080fd5b612455878288016122f3565b91505092959194509250565b6000806040838503121561247457600080fd5b60006124828582860161229f565b9250506020612493858286016122b4565b9150509250929050565b600080604083850312156124b057600080fd5b60006124be8582860161229f565b92505060206124cf8582860161231d565b9150509250929050565b6000602082840312156124eb57600080fd5b60006124f9848285016122c9565b91505092915050565b60006020828403121561251457600080fd5b6000612522848285016122de565b91505092915050565b60006020828403121561253d57600080fd5b600061254b8482850161231d565b91505092915050565b61255d816135fd565b82525050565b61256c8161360f565b82525050565b600061257d826134a5565b61258781856134bb565b9350612597818560208601613680565b6125a08161381b565b840191505092915050565b60006125b6826134b0565b6125c081856134cc565b93506125d0818560208601613680565b6125d98161381b565b840191505092915050565b60006125ef826134b0565b6125f981856134dd565b9350612609818560208601613680565b80840191505092915050565b60008154612622816136b3565b61262c81866134dd565b9450600182166000811461264757600181146126585761268b565b60ff1983168652818601935061268b565b61266185613490565b60005b8381101561268357815481890152600182019150602081019050612664565b838801955050505b50505092915050565b60006126a16032836134cc565b91507f4552433732313a207472616e7366657220746f206e6f6e20455243373231526560008301527f63656976657220696d706c656d656e74657200000000000000000000000000006020830152604082019050919050565b6000612707601c836134cc565b91507f4552433732313a20746f6b656e20616c7265616479206d696e746564000000006000830152602082019050919050565b6000612747600a836134dd565b91507f54484952445f574f5244000000000000000000000000000000000000000000006000830152600a82019050919050565b60006127876024836134cc565b91507f4552433732313a207472616e7366657220746f20746865207a65726f2061646460008301527f72657373000000000000000000000000000000000000000000000000000000006020830152604082019050919050565b60006127ed6019836134cc565b91507f4552433732313a20617070726f766520746f2063616c6c6572000000000000006000830152602082019050919050565b600061282d6063836134dd565b91507f222c20226465736372697074696f6e223a20224120686967686c79206163636c60008301527f61696d656420636f6c6c656374696f6e206f6620737175617265732e222c202260208301527f696d616765223a2022646174613a696d6167652f7376672b786d6c3b6261736560408301527f36342c00000000000000000000000000000000000000000000000000000000006060830152606382019050919050565b60006128df600b836134dd565b91507f5345434f4e445f574f52440000000000000000000000000000000000000000006000830152600b82019050919050565b600061291f602c836134cc565b91507f4552433732313a206f70657261746f7220717565727920666f72206e6f6e657860008301527f697374656e7420746f6b656e00000000000000000000000000000000000000006020830152604082019050919050565b6000612985600d836134dd565b91507f3c2f746578743e3c2f7376673e000000000000000000000000000000000000006000830152600d82019050919050565b60006129c56038836134cc565b91507f4552433732313a20617070726f76652063616c6c6572206973206e6f74206f7760008301527f6e6572206e6f7220617070726f76656420666f7220616c6c00000000000000006020830152604082019050919050565b6000612a2b602a836134cc565b91507f4552433732313a2062616c616e636520717565727920666f7220746865207a6560008301527f726f2061646472657373000000000000000000000000000000000000000000006020830152604082019050919050565b6000612a916029836134cc565b91507f4552433732313a206f776e657220717565727920666f72206e6f6e657869737460008301527f656e7420746f6b656e00000000000000000000000000000000000000000000006020830152604082019050919050565b6000612af7602e836134cc565b91507f45524337323155524953746f726167653a2055524920736574206f66206e6f6e60008301527f6578697374656e7420746f6b656e0000000000000000000000000000000000006020830152604082019050919050565b6000612b5d6002836134dd565b91507f227d0000000000000000000000000000000000000000000000000000000000006000830152600282019050919050565b6000612b9d6020836134cc565b91507f4552433732313a206d696e7420746f20746865207a65726f20616464726573736000830152602082019050919050565b6000612bdd6031836134cc565b91507f45524337323155524953746f726167653a2055524920717565727920666f722060008301527f6e6f6e6578697374656e7420746f6b656e0000000000000000000000000000006020830152604082019050919050565b6000612c43602c836134cc565b91507f4552433732313a20617070726f76656420717565727920666f72206e6f6e657860008301527f697374656e7420746f6b656e00000000000000000000000000000000000000006020830152604082019050919050565b6000612ca96029836134cc565b91507f4552433732313a207472616e73666572206f6620746f6b656e2074686174206960008301527f73206e6f74206f776e00000000000000000000000000000000000000000000006020830152604082019050919050565b6000612d0f602f836134cc565b91507f4552433732314d657461646174613a2055524920717565727920666f72206e6f60008301527f6e6578697374656e7420746f6b656e00000000000000000000000000000000006020830152604082019050919050565b6000612d75600a836134dd565b91507f7b226e616d65223a2022000000000000000000000000000000000000000000006000830152600a82019050919050565b6000612db56021836134cc565b91507f4552433732313a20617070726f76616c20746f2063757272656e74206f776e6560008301527f72000000000000000000000000000000000000000000000000000000000000006020830152604082019050919050565b6000612e1b600a836134dd565b91507f46495253545f574f5244000000000000000000000000000000000000000000006000830152600a82019050919050565b6000612e5b601d836134dd565b91507f646174613a6170706c69636174696f6e2f6a736f6e3b6261736536342c0000006000830152601d82019050919050565b6000612e9b6031836134cc565b91507f4552433732313a207472616e736665722063616c6c6572206973206e6f74206f60008301527f776e6572206e6f7220617070726f7665640000000000000000000000000000006020830152604082019050919050565b6000612f016005836134dd565b91507f434f4c4f520000000000000000000000000000000000000000000000000000006000830152600582019050919050565b6000612f41601c836134cc565b91507f4d617820537570706c79206f6620746f6b656e732072656163686564000000006000830152602082019050919050565b612f7d81613667565b82525050565b6000612f8f82846125e4565b915081905092915050565b6000612fa682856125e4565b9150612fb282846125e4565b91508190509392505050565b6000612fca82866125e4565b9150612fd682856125e4565b9150612fe282846125e4565b9150819050949350505050565b6000612ffb8287612615565b915061300782866125e4565b91506130138285612615565b915061301f82846125e4565b915061302a82612978565b915081905095945050505050565b60006130438261273a565b915061304f82846125e4565b915081905092915050565b6000613065826128d2565b915061307182846125e4565b915081905092915050565b600061308782612d68565b915061309382856125e4565b915061309e82612820565b91506130aa82846125e4565b91506130b582612b50565b91508190509392505050565b60006130cc82612e0e565b91506130d882846125e4565b915081905092915050565b60006130ee82612e4e565b91506130fa82846125e4565b915081905092915050565b600061311082612ef4565b915061311c82846125e4565b915081905092915050565b600060208201905061313c6000830184612554565b92915050565b60006080820190506131576000830187612554565b6131646020830186612554565b6131716040830185612f74565b81810360608301526131838184612572565b905095945050505050565b60006040820190506131a36000830185612554565b6131b06020830184612f74565b9392505050565b60006020820190506131cc6000830184612563565b92915050565b600060208201905081810360008301526131ec81846125ab565b905092915050565b6000602082019050818103600083015261320d81612694565b9050919050565b6000602082019050818103600083015261322d816126fa565b9050919050565b6000602082019050818103600083015261324d8161277a565b9050919050565b6000602082019050818103600083015261326d816127e0565b9050919050565b6000602082019050818103600083015261328d81612912565b9050919050565b600060208201905081810360008301526132ad816129b8565b9050919050565b600060208201905081810360008301526132cd81612a1e565b9050919050565b600060208201905081810360008301526132ed81612a84565b9050919050565b6000602082019050818103600083015261330d81612aea565b9050919050565b6000602082019050818103600083015261332d81612b90565b9050919050565b6000602082019050818103600083015261334d81612bd0565b9050919050565b6000602082019050818103600083015261336d81612c36565b9050919050565b6000602082019050818103600083015261338d81612c9c565b9050919050565b600060208201905081810360008301526133ad81612d02565b9050919050565b600060208201905081810360008301526133cd81612da8565b9050919050565b600060208201905081810360008301526133ed81612e8e565b9050919050565b6000602082019050818103600083015261340d81612f34565b9050919050565b60006020820190506134296000830184612f74565b92915050565b6000604051905081810181811067ffffffffffffffff82111715613456576134556137ec565b5b8060405250919050565b600067ffffffffffffffff82111561347b5761347a6137ec565b5b601f19601f8301169050602081019050919050565b60008190508160005260206000209050919050565b600081519050919050565b600081519050919050565b600082825260208201905092915050565b600082825260208201905092915050565b600081905092915050565b60006134f382613667565b91506134fe83613667565b9250827fffffffffffffffffffffffffffffffffffffffffffffffffffffffffffffffff038211156135335761353261375f565b5b828201905092915050565b600061354982613667565b915061355483613667565b9250826135645761356361378e565b5b828204905092915050565b600061357a82613667565b915061358583613667565b9250817fffffffffffffffffffffffffffffffffffffffffffffffffffffffffffffffff04831182151516156135be576135bd61375f565b5b828202905092915050565b60006135d482613667565b91506135df83613667565b9250828210156135f2576135f161375f565b5b828203905092915050565b600061360882613647565b9050919050565b60008115159050919050565b60007fffffffff0000000000000000000000000000000000000000000000000000000082169050919050565b600073ffffffffffffffffffffffffffffffffffffffff82169050919050565b6000819050919050565b82818337600083830152505050565b60005b8381101561369e578082015181840152602081019050613683565b838111156136ad576000848401525b50505050565b600060028204905060018216806136cb57607f821691505b602082108114156136df576136de6137bd565b5b50919050565b60006136f082613667565b91507fffffffffffffffffffffffffffffffffffffffffffffffffffffffffffffffff8214156137235761372261375f565b5b600182019050919050565b600061373982613667565b915061374483613667565b9250826137545761375361378e565b5b828206905092915050565b7f4e487b7100000000000000000000000000000000000000000000000000000000600052601160045260246000fd5b7f4e487b7100000000000000000000000000000000000000000000000000000000600052601260045260246000fd5b7f4e487b7100000000000000000000000000000000000000000000000000000000600052602260045260246000fd5b7f4e487b7100000000000000000000000000000000000000000000000000000000600052604160045260246000fd5b6000601f19601f8301169050919050565b613835816135fd565b811461384057600080fd5b50565b61384c8161360f565b811461385757600080fd5b50565b6138638161361b565b811461386e57600080fd5b50565b61387a81613667565b811461388557600080fd5b5056fe4142434445464748494a4b4c4d4e4f505152535455565758595a6162636465666768696a6b6c6d6e6f707172737475767778797a303132333435363738392b2fa26469706673582212208365293fde4aa478fada20deea31200c0a2c3432fef77e88a460321300cdef7964736f6c634300080000333c73766720786d6c6e733d27687474703a2f2f7777772e77332e6f72672f323030302f73766727207072657365727665417370656374526174696f3d27784d696e594d696e206d656574272076696577426f783d273020302033353020333530273e3c7374796c653e2e62617365207b2066696c6c3a2077686974653b20666f6e742d66616d696c793a2073657269663b20666f6e742d73697a653a20323470783b207d3c2f7374796c653e3c726563742077696474683d273130302527206865696768743d2731303025272066696c6c3d27272f3e3c7465787420783d273530252720793d273530252720636c6173733d27626173652720646f6d696e616e742d626173656c696e653d276d6964646c652720746578742d616e63686f723d276d6964646c65273e",
  "linkReferences": {},
  "deployedLinkReferences": {}
}